:020000020000FC
:1008000026272A3037404B576472808E9CA9B5C08A
:10081000C9D0D6D9DAD9D6D0C9C0B5A99C8E807234
:1008200064574B4037302A272833517CABD3EBEF4A
:10083000DDB98C5F3B292D456D9CC7E5F0E5C79C74
:100840006D452D293B5F8CB9DDEFEBD3AB7C51338C
:1000000030C01895189580C0189518956BC073C0AE
:100010004BC018951895189518951895189518951A
:10002000189501EF0FBD02E00EBD02E705BD0CED16
:1000300008BF09BF0EE007BB04BB68E04427F62FEA
:10004000E42F2BBCC8950ABC5DE0E52F29BCC89500
:1000500008BC8AE1E82FC89503BC43955395839566
:1000600008950FE50DBF04E00EBF2224DADF789477
:1000700000000000FDCF0FB70F93869903C00F91CA
:100080000FBF189500B300740215E1F70EB50770A5
:1000900015E0011709F400E003950EBD00E000BB78
:1000A0000EB5009508BBE4CF0FB70F93F62FE42FE2
:1000B0002BBCC8950ABCE52F29BCC89508BCE82F05
:1000C000C89503BC07E2401709F44FEF439550175A
:1000D00009F45FEF5395801709F48FEF83950F9123
:1000E0000FBF18950FB70F939999A998999BA99A43
:1000F0000F910FBF18950FB70F939A99AA989A9BD3
:10010000AA9A0F910FBF18950FB70F939B99AB98B1
:0A0110009B9BAB9A0F910FBF18954F
:00000001FF
